{
  "_format": "hh-sol-artifact-1",
  "contractName": "Dex",
  "sourceName": "contracts/MyDex.sol",
  "abi": [
    {
      "inputs": [
        {
          "internalType": "address",
          "name": "_uniswapRouterAddress",
          "type": "address"
        },
        {
          "internalType": "address",
          "name": "_uniswapFactoryAddress",
          "type": "address"
        },
        {
          "internalType": "address",
          "name": "_feeCollector",
          "type": "address"
        },
        {
          "internalType": "address",
          "name": "_governanceToken",
          "type": "address"
        }
      ],
      "stateMutability": "nonpayable",
      "type": "constructor"
    },
    {
      "inputs": [
        {
          "internalType": "address",
          "name": "owner",
          "type": "address"
        }
      ],
      "name": "OwnableInvalidOwner",
      "type": "error"
    },
    {
      "inputs": [
        {
          "internalType": "address",
          "name": "account",
          "type": "address"
        }
      ],
      "name": "OwnableUnauthorizedAccount",
      "type": "error"
    },
    {
      "inputs": [],
      "name": "ReentrancyGuardReentrantCall",
      "type": "error"
    },
    {
      "inputs": [
        {
          "internalType": "address",
          "name": "token",
          "type": "address"
        }
      ],
      "name": "SafeERC20FailedOperation",
      "type": "error"
    },
    {
      "anonymous": false,
      "inputs": [
        {
          "indexed": true,
          "internalType": "address",
          "name": "pauser",
          "type": "address"
        }
      ],
      "name": "ContractPaused",
      "type": "event"
    },
    {
      "anonymous": false,
      "inputs": [
        {
          "indexed": true,
          "internalType": "address",
          "name": "unpauser",
          "type": "address"
        }
      ],
      "name": "ContractUnpaused",
      "type": "event"
    },
    {
      "anonymous": false,
      "inputs": [
        {
          "indexed": true,
          "internalType": "address",
          "name": "user",
          "type": "address"
        },
        {
          "indexed": false,
          "internalType": "address",
          "name": "token",
          "type": "address"
        },
        {
          "indexed": false,
          "internalType": "uint256",
          "name": "amount",
          "type": "uint256"
        }
      ],
      "name": "EmergencyWithdraw",
      "type": "event"
    },
    {
      "anonymous": false,
      "inputs": [
        {
          "indexed": true,
          "internalType": "address",
          "name": "newFeeCollector",
          "type": "address"
        }
      ],
      "name": "FeeCollectorUpdated",
      "type": "event"
    },
    {
      "anonymous": false,
      "inputs": [
        {
          "indexed": true,
          "internalType": "address",
          "name": "provider",
          "type": "address"
        },
        {
          "indexed": false,
          "internalType": "address",
          "name": "tokenA",
          "type": "address"
        },
        {
          "indexed": false,
          "internalType": "address",
          "name": "tokenB",
          "type": "address"
        },
        {
          "indexed": false,
          "internalType": "uint256",
          "name": "amountA",
          "type": "uint256"
        },
        {
          "indexed": false,
          "internalType": "uint256",
          "name": "amountB",
          "type": "uint256"
        }
      ],
      "name": "LiquidityAdded",
      "type": "event"
    },
    {
      "anonymous": false,
      "inputs": [
        {
          "indexed": true,
          "internalType": "address",
          "name": "provider",
          "type": "address"
        },
        {
          "indexed": false,
          "internalType": "address",
          "name": "tokenA",
          "type": "address"
        },
        {
          "indexed": false,
          "internalType": "address",
          "name": "tokenB",
          "type": "address"
        },
        {
          "indexed": false,
          "internalType": "uint256",
          "name": "amountA",
          "type": "uint256"
        },
        {
          "indexed": false,
          "internalType": "uint256",
          "name": "amountB",
          "type": "uint256"
        }
      ],
      "name": "LiquidityRemoved",
      "type": "event"
    },
    {
      "anonymous": false,
      "inputs": [
        {
          "indexed": true,
          "internalType": "address",
          "name": "previousOwner",
          "type": "address"
        },
        {
          "indexed": true,
          "internalType": "address",
          "name": "newOwner",
          "type": "address"
        }
      ],
      "name": "OwnershipTransferred",
      "type": "event"
    },
    {
      "anonymous": false,
      "inputs": [
        {
          "indexed": true,
          "internalType": "address",
          "name": "tokenA",
          "type": "address"
        },
        {
          "indexed": true,
          "internalType": "address",
          "name": "tokenB",
          "type": "address"
        },
        {
          "indexed": false,
          "internalType": "uint256",
          "name": "price",
          "type": "uint256"
        }
      ],
      "name": "PriceUpdated",
      "type": "event"
    },
    {
      "anonymous": false,
      "inputs": [
        {
          "indexed": true,
          "internalType": "address",
          "name": "user",
          "type": "address"
        },
        {
          "indexed": false,
          "internalType": "address",
          "name": "tokenA",
          "type": "address"
        },
        {
          "indexed": false,
          "internalType": "address",
          "name": "tokenB",
          "type": "address"
        },
        {
          "indexed": false,
          "internalType": "uint256",
          "name": "amount",
          "type": "uint256"
        }
      ],
      "name": "StakingRewardClaimed",
      "type": "event"
    },
    {
      "anonymous": false,
      "inputs": [
        {
          "indexed": true,
          "internalType": "address",
          "name": "token",
          "type": "address"
        },
        {
          "indexed": false,
          "internalType": "bool",
          "name": "status",
          "type": "bool"
        }
      ],
      "name": "TokenWhitelisted",
      "type": "event"
    },
    {
      "anonymous": false,
      "inputs": [
        {
          "indexed": true,
          "internalType": "address",
          "name": "sender",
          "type": "address"
        },
        {
          "indexed": false,
          "internalType": "address[]",
          "name": "path",
          "type": "address[]"
        },
        {
          "indexed": false,
          "internalType": "uint256",
          "name": "amountIn",
          "type": "uint256"
        },
        {
          "indexed": false,
          "internalType": "uint256",
          "name": "amountOut",
          "type": "uint256"
        }
      ],
      "name": "TokensSwapped",
      "type": "event"
    },
    {
      "inputs": [],
      "name": "FEE_PERCENTAGE",
      "outputs": [
        {
          "internalType": "uint256",
          "name": "",
          "type": "uint256"
        }
      ],
      "stateMutability": "view",
      "type": "function"
    },
    {
      "inputs": [],
      "name": "PRICE_CHECK_COOLDOWN",
      "outputs": [
        {
          "internalType": "uint256",
          "name": "",
          "type": "uint256"
        }
      ],
      "stateMutability": "view",
      "type": "function"
    },
    {
      "inputs": [],
      "name": "REWARD_RATE",
      "outputs": [
        {
          "internalType": "uint256",
          "name": "",
          "type": "uint256"
        }
      ],
      "stateMutability": "view",
      "type": "function"
    },
    {
      "inputs": [
        {
          "internalType": "address",
          "name": "_tokenA",
          "type": "address"
        },
        {
          "internalType": "address",
          "name": "_tokenB",
          "type": "address"
        },
        {
          "internalType": "uint256",
          "name": "amountADesired",
          "type": "uint256"
        },
        {
          "internalType": "uint256",
          "name": "amountBDesired",
          "type": "uint256"
        },
        {
          "internalType": "uint256",
          "name": "amountAMin",
          "type": "uint256"
        },
        {
          "internalType": "uint256",
          "name": "amountBMin",
          "type": "uint256"
        },
        {
          "internalType": "address",
          "name": "to",
          "type": "address"
        },
        {
          "internalType": "uint256",
          "name": "deadline",
          "type": "uint256"
        }
      ],
      "name": "addLiquidity",
      "outputs": [
        {
          "internalType": "uint256",
          "name": "amountA",
          "type": "uint256"
        },
        {
          "internalType": "uint256",
          "name": "amountB",
          "type": "uint256"
        },
        {
          "internalType": "uint256",
          "name": "liquidity",
          "type": "uint256"
        }
      ],
      "stateMutability": "nonpayable",
      "type": "function"
    },
    {
      "inputs": [
        {
          "internalType": "address",
          "name": "_tokenA",
          "type": "address"
        },
        {
          "internalType": "address",
          "name": "_tokenB",
          "type": "address"
        }
      ],
      "name": "addSupportedPair",
      "outputs": [],
      "stateMutability": "nonpayable",
      "type": "function"
    },
    {
      "inputs": [
        {
          "internalType": "address",
          "name": "_tokenA",
          "type": "address"
        },
        {
          "internalType": "address",
          "name": "_tokenB",
          "type": "address"
        }
      ],
      "name": "claimStakingRewards",
      "outputs": [],
      "stateMutability": "nonpayable",
      "type": "function"
    },
    {
      "inputs": [
        {
          "internalType": "address",
          "name": "token",
          "type": "address"
        }
      ],
      "name": "emergencyWithdraw",
      "outputs": [],
      "stateMutability": "nonpayable",
      "type": "function"
    },
    {
      "inputs": [],
      "name": "feeCollector",
      "outputs": [
        {
          "internalType": "address",
          "name": "",
          "type": "address"
        }
      ],
      "stateMutability": "view",
      "type": "function"
    },
    {
      "inputs": [
        {
          "internalType": "address",
          "name": "_tokenA",
          "type": "address"
        },
        {
          "internalType": "address",
          "name": "_tokenB",
          "type": "address"
        }
      ],
      "name": "getStakingRewards",
      "outputs": [
        {
          "internalType": "uint256",
          "name": "",
          "type": "uint256"
        }
      ],
      "stateMutability": "view",
      "type": "function"
    },
    {
      "inputs": [],
      "name": "getSupportedPairs",
      "outputs": [
        {
          "components": [
            {
              "internalType": "address",
              "name": "tokenA",
              "type": "address"
            },
            {
              "internalType": "address",
              "name": "tokenB",
              "type": "address"
            },
            {
              "internalType": "address",
              "name": "pairAddress",
              "type": "address"
            }
          ],
          "internalType": "struct Dex.TokenPair[]",
          "name": "",
          "type": "tuple[]"
        }
      ],
      "stateMutability": "view",
      "type": "function"
    },
    {
      "inputs": [
        {
          "internalType": "address",
          "name": "_tokenA",
          "type": "address"
        },
        {
          "internalType": "address",
          "name": "_tokenB",
          "type": "address"
        }
      ],
      "name": "getTokenPrice",
      "outputs": [
        {
          "internalType": "uint256",
          "name": "",
          "type": "uint256"
        }
      ],
      "stateMutability": "view",
      "type": "function"
    },
    {
      "inputs": [],
      "name": "governanceToken",
      "outputs": [
        {
          "internalType": "contract IERC20",
          "name": "",
          "type": "address"
        }
      ],
      "stateMutability": "view",
      "type": "function"
    },
    {
      "inputs": [
        {
          "internalType": "address",
          "name": "",
          "type": "address"
        },
        {
          "internalType": "address",
          "name": "",
          "type": "address"
        }
      ],
      "name": "lastCheckedPrice",
      "outputs": [
        {
          "internalType": "uint256",
          "name": "",
          "type": "uint256"
        }
      ],
      "stateMutability": "view",
      "type": "function"
    },
    {
      "inputs": [
        {
          "internalType": "address",
          "name": "",
          "type": "address"
        },
        {
          "internalType": "address",
          "name": "",
          "type": "address"
        }
      ],
      "name": "liquidityProviders",
      "outputs": [
        {
          "internalType": "uint256",
          "name": "",
          "type": "uint256"
        }
      ],
      "stateMutability": "view",
      "type": "function"
    },
    {
      "inputs": [],
      "name": "owner",
      "outputs": [
        {
          "internalType": "address",
          "name": "",
          "type": "address"
        }
      ],
      "stateMutability": "view",
      "type": "function"
    },
    {
      "inputs": [],
      "name": "pauseContract",
      "outputs": [],
      "stateMutability": "nonpayable",
      "type": "function"
    },
    {
      "inputs": [],
      "name": "paused",
      "outputs": [
        {
          "internalType": "bool",
          "name": "",
          "type": "bool"
        }
      ],
      "stateMutability": "view",
      "type": "function"
    },
    {
      "inputs": [
        {
          "internalType": "address",
          "name": "_tokenA",
          "type": "address"
        },
        {
          "internalType": "address",
          "name": "_tokenB",
          "type": "address"
        },
        {
          "internalType": "uint256",
          "name": "liquidity",
          "type": "uint256"
        },
        {
          "internalType": "uint256",
          "name": "amountAMin",
          "type": "uint256"
        },
        {
          "internalType": "uint256",
          "name": "amountBMin",
          "type": "uint256"
        },
        {
          "internalType": "address",
          "name": "to",
          "type": "address"
        },
        {
          "internalType": "uint256",
          "name": "deadline",
          "type": "uint256"
        }
      ],
      "name": "removeLiquidity",
      "outputs": [
        {
          "internalType": "uint256",
          "name": "amountA",
          "type": "uint256"
        },
        {
          "internalType": "uint256",
          "name": "amountB",
          "type": "uint256"
        }
      ],
      "stateMutability": "nonpayable",
      "type": "function"
    },
    {
      "inputs": [],
      "name": "renounceOwnership",
      "outputs": [],
      "stateMutability": "nonpayable",
      "type": "function"
    },
    {
      "inputs": [
        {
          "internalType": "address",
          "name": "",
          "type": "address"
        },
        {
          "internalType": "address",
          "name": "",
          "type": "address"
        }
      ],
      "name": "stakingRewards",
      "outputs": [
        {
          "internalType": "uint256",
          "name": "",
          "type": "uint256"
        }
      ],
      "stateMutability": "view",
      "type": "function"
    },
    {
      "inputs": [
        {
          "internalType": "uint256",
          "name": "",
          "type": "uint256"
        }
      ],
      "name": "supportedPairs",
      "outputs": [
        {
          "internalType": "address",
          "name": "tokenA",
          "type": "address"
        },
        {
          "internalType": "address",
          "name": "tokenB",
          "type": "address"
        },
        {
          "internalType": "address",
          "name": "pairAddress",
          "type": "address"
        }
      ],
      "stateMutability": "view",
      "type": "function"
    },
    {
      "inputs": [
        {
          "internalType": "uint256",
          "name": "amountIn",
          "type": "uint256"
        },
        {
          "internalType": "uint256",
          "name": "amountOutMin",
          "type": "uint256"
        },
        {
          "internalType": "address[]",
          "name": "path",
          "type": "address[]"
        },
        {
          "internalType": "address",
          "name": "to",
          "type": "address"
        },
        {
          "internalType": "uint256",
          "name": "deadline",
          "type": "uint256"
        }
      ],
      "name": "swapTokensWithFee",
      "outputs": [],
      "stateMutability": "nonpayable",
      "type": "function"
    },
    {
      "inputs": [
        {
          "internalType": "address",
          "name": "newOwner",
          "type": "address"
        }
      ],
      "name": "transferOwnership",
      "outputs": [],
      "stateMutability": "nonpayable",
      "type": "function"
    },
    {
      "inputs": [],
      "name": "uniswapFactory",
      "outputs": [
        {
          "internalType": "contract IUniswapV2Factory",
          "name": "",
          "type": "address"
        }
      ],
      "stateMutability": "view",
      "type": "function"
    },
    {
      "inputs": [],
      "name": "uniswapRouter",
      "outputs": [
        {
          "internalType": "contract IUniswapV2Router02",
          "name": "",
          "type": "address"
        }
      ],
      "stateMutability": "view",
      "type": "function"
    },
    {
      "inputs": [],
      "name": "unpauseContract",
      "outputs": [],
      "stateMutability": "nonpayable",
      "type": "function"
    },
    {
      "inputs": [
        {
          "internalType": "address",
          "name": "_newFeeCollector",
          "type": "address"
        }
      ],
      "name": "updateFeeCollector",
      "outputs": [],
      "stateMutability": "nonpayable",
      "type": "function"
    },
    {
      "inputs": [
        {
          "internalType": "uint256",
          "name": "_newFeePercentage",
          "type": "uint256"
        }
      ],
      "name": "updateFeePercentage",
      "outputs": [],
      "stateMutability": "nonpayable",
      "type": "function"
    },
    {
      "inputs": [
        {
          "internalType": "address",
          "name": "_tokenA",
          "type": "address"
        },
        {
          "internalType": "address",
          "name": "_tokenB",
          "type": "address"
        }
      ],
      "name": "updateTokenPrice",
      "outputs": [],
      "stateMutability": "nonpayable",
      "type": "function"
    },
    {
      "inputs": [
        {
          "internalType": "address",
          "name": "_token",
          "type": "address"
        },
        {
          "internalType": "bool",
          "name": "_status",
          "type": "bool"
        }
      ],
      "name": "whitelistToken",
      "outputs": [],
      "stateMutability": "nonpayable",
      "type": "function"
    },
    {
      "inputs": [
        {
          "internalType": "address",
          "name": "",
          "type": "address"
        }
      ],
      "name": "whitelistedTokens",
      "outputs": [
        {
          "internalType": "bool",
          "name": "",
          "type": "bool"
        }
      ],
      "stateMutability": "view",
      "type": "function"
    },
    {
      "stateMutability": "payable",
      "type": "receive"
    }
  ],
  "bytecode": "0x60806040526003600a556000600b60146101000a81548160ff0219169083151502179055503480156200003157600080fd5b50604051620045ef380380620045ef833981810160405281019062000057919062000322565b33600073ffffffffffffffffffffffffffffffffffffffff168173ffffffffffffffffffffffffffffffffffffffff1603620000cd5760006040517f1e4fbdf7000000000000000000000000000000000000000000000000000000008152600401620000c49190620003a5565b60405180910390fd5b620000de81620001f460201b60201c565b506001808190555083600260006101000a81548173ffffffffffffffffffffffffffffffffffffffff021916908373ffffffffffffffffffffffffffffffffffffffff16021790555082600360006101000a81548173ffffffffffffffffffffffffffffffffffffffff021916908373ffffffffffffffffffffffffffffffffffffffff16021790555081600b60006101000a81548173ffffffffffffffffffffffffffffffffffffffff021916908373ffffffffffffffffffffffffffffffffffffffff16021790555080600960006101000a81548173ffffffffffffffffffffffffffffffffffffffff021916908373ffffffffffffffffffffffffffffffffffffffff16021790555050505050620003c2565b60008060009054906101000a900473ffffffffffffffffffffffffffffffffffffffff169050816000806101000a81548173ffffffffffffffffffffffffffffffffffffffff021916908373ffffffffffffffffffffffffffffffffffffffff1602179055508173ffffffffffffffffffffffffffffffffffffffff168173ffffffffffffffffffffffffffffffffffffffff167f8be0079c531659141344cd1fd0a4f28419497f9722a3daafe3b4186f6b6457e060405160405180910390a35050565b600080fd5b600073ffffffffffffffffffffffffffffffffffffffff82169050919050565b6000620002ea82620002bd565b9050919050565b620002fc81620002dd565b81146200030857600080fd5b50565b6000815190506200031c81620002f1565b92915050565b600080600080608085870312156200033f576200033e620002b8565b5b60006200034f878288016200030b565b945050602062000362878288016200030b565b935050604062000375878288016200030b565b925050606062000388878288016200030b565b91505092959194509250565b6200039f81620002dd565b82525050565b6000602082019050620003bc600083018462000394565b92915050565b61421d80620003d26000396000f3fe6080604052600436106101db5760003560e01c8063afa9986011610102578063daf9c21011610095578063eb2767fa11610064578063eb2767fa146106bb578063f2fde38b146106e4578063f96dae0a1461070d578063ffb4f2e314610738576101e2565b8063daf9c210146105c3578063e17ddf5d14610600578063e8bfb3111461063f578063e8e337001461067c576101e2565b8063c415b95c116100d1578063c415b95c14610519578063d2c35ce814610544578063d306edf41461056d578063d527c99814610598576101e2565b8063afa998601461045e578063b33712c51461049b578063baa2abde146104b2578063c129dd84146104f0576101e2565b80636cad3fb01161017a578063804817fd11610149578063804817fd146103a2578063851eae01146103cb5780638bdb2afa146104085780638da5cb5b14610433576101e2565b80636cad3fb01461030e5780636ff1c9bc14610337578063715018a614610360578063735de9f714610377576101e2565b80635997bb37116101b65780635997bb371461025257806359ab77e31461027d5780635c975abb146102a657806362b15fdc146102d1576101e2565b80620b46f8146101e75780630ffb1d8b14610212578063439766ce1461023b576101e2565b366101e257005b600080fd5b3480156101f357600080fd5b506101fc610775565b6040516102099190612e4c565b60405180910390f35b34801561021e57600080fd5b5061023960048036038101906102349190612f11565b61077b565b005b34801561024757600080fd5b5061025061082c565b005b34801561025e57600080fd5b50610267610894565b6040516102749190612e4c565b60405180910390f35b34801561028957600080fd5b506102a4600480360381019061029f9190612f51565b610899565b005b3480156102b257600080fd5b506102bb610b7e565b6040516102c89190612fa0565b60405180910390f35b3480156102dd57600080fd5b506102f860048036038101906102f39190612f51565b610b91565b6040516103059190612e4c565b60405180910390f35b34801561031a57600080fd5b5061033560048036038101906103309190612fe7565b610c18565b005b34801561034357600080fd5b5061035e60048036038101906103599190613014565b610e72565b005b34801561036c57600080fd5b50610375610fc2565b005b34801561038357600080fd5b5061038c610fd6565b60405161039991906130a0565b60405180910390f35b3480156103ae57600080fd5b506103c960048036038101906103c49190613120565b610ffc565b005b3480156103d757600080fd5b506103f260048036038101906103ed9190612f51565b61144b565b6040516103ff9190612e4c565b60405180910390f35b34801561041457600080fd5b5061041d611470565b60405161042a91906131db565b60405180910390f35b34801561043f57600080fd5b50610448611496565b6040516104559190613205565b60405180910390f35b34801561046a57600080fd5b5061048560048036038101906104809190612f51565b6114bf565b6040516104929190612e4c565b60405180910390f35b3480156104a757600080fd5b506104b0611681565b005b3480156104be57600080fd5b506104d960048036038101906104d49190613220565b6116e9565b6040516104e79291906132c2565b60405180910390f35b3480156104fc57600080fd5b5061051760048036038101906105129190612f51565b611a18565b005b34801561052557600080fd5b5061052e611ddc565b60405161053b9190613205565b60405180910390f35b34801561055057600080fd5b5061056b60048036038101906105669190613014565b611e02565b005b34801561057957600080fd5b50610582611f00565b60405161058f9190612e4c565b60405180910390f35b3480156105a457600080fd5b506105ad611f06565b6040516105ba91906133eb565b60405180910390f35b3480156105cf57600080fd5b506105ea60048036038101906105e59190613014565b612067565b6040516105f79190612fa0565b60405180910390f35b34801561060c57600080fd5b5061062760048036038101906106229190612fe7565b612087565b6040516106369392919061340d565b60405180910390f35b34801561064b57600080fd5b5061066660048036038101906106619190612f51565b612121565b6040516106739190612e4c565b60405180910390f35b34801561068857600080fd5b506106a3600480360381019061069e9190613444565b612146565b6040516106b2939291906134fa565b60405180910390f35b3480156106c757600080fd5b506106e260048036038101906106dd9190612f51565b6125ea565b005b3480156106f057600080fd5b5061070b60048036038101906107069190613014565b612812565b005b34801561071957600080fd5b50610722612898565b60405161072f9190613552565b60405180910390f35b34801561074457600080fd5b5061075f600480360381019061075a9190612f51565b6128be565b60405161076c9190612e4c565b60405180910390f35b600a5481565b6107836128e3565b80600560008473ffffffffffffffffffffffffffffffffffffffff1673ffffffffffffffffffffffffffffffffffffffff16815260200190815260200160002060006101000a81548160ff0219169083151502179055508173ffffffffffffffffffffffffffffffffffffffff167fef81a9943b96c8df4ef243401c9bf5159146166211356898b52d382086168d92826040516108209190612fa0565b60405180910390a25050565b6108346128e3565b6001600b60146101000a81548160ff0219169083151502179055503373ffffffffffffffffffffffffffffffffffffffff167f81990fd9a5c552b8e3677917d8a03c07678f0d2cb68f88b634aca2022e9bd19f60405160405180910390a2565b600a81565b6108a16128e3565b6000600360009054906101000a900473ffffffffffffffffffffffffffffffffffffffff1673ffffffffffffffffffffffffffffffffffffffff1663e6a4390584846040518363ffffffff1660e01b815260040161090092919061356d565b602060405180830381865afa15801561091d573d6000803e3d6000fd5b505050506040513d601f19601f8201168201806040525081019061094191906135ab565b9050600073ffffffffffffffffffffffffffffffffffffffff168173ffffffffffffffffffffffffffffffffffffffff1603610a1a57600360009054906101000a900473ffffffffffffffffffffffffffffffffffffffff1673ffffffffffffffffffffffffffffffffffffffff1663c9c6539684846040518363ffffffff1660e01b81526004016109d492919061356d565b6020604051808303816000875af11580156109f3573d6000803e3d6000fd5b505050506040513d601f19601f82011682018060405250810190610a1791906135ab565b90505b600760405180606001604052808573ffffffffffffffffffffffffffffffffffffffff1681526020018473ffffffffffffffffffffffffffffffffffffffff1681526020018373ffffffffffffffffffffffffffffffffffffffff16815250908060018154018082558091505060019003906000526020600020906003020160009091909190915060008201518160000160006101000a81548173ffffffffffffffffffffffffffffffffffffffff021916908373ffffffffffffffffffffffffffffffffffffffff16021790555060208201518160010160006101000a81548173ffffffffffffffffffffffffffffffffffffffff021916908373ffffffffffffffffffffffffffffffffffffffff16021790555060408201518160020160006101000a81548173ffffffffffffffffffffffffffffffffffffffff021916908373ffffffffffffffffffffffffffffffffffffffff1602179055505050505050565b600b60149054906101000a900460ff1681565b6000600660008473ffffffffffffffffffffffffffffffffffffffff1673ffffffffffffffffffffffffffffffffffffffff16815260200190815260200160002060008373ffffffffffffffffffffffffffffffffffffffff1673ffffffffffffffffffffffffffffffffffffffff16815260200190815260200160002054905092915050565b683635c9adc5dea00000600960009054906101000a900473ffffffffffffffffffffffffffffffffffffffff1673ffffffffffffffffffffffffffffffffffffffff166370a08231336040518263ffffffff1660e01b8152600401610c7d9190613205565b602060405180830381865afa158015610c9a573d6000803e3d6000fd5b505050506040513d601f19601f82011682018060405250810190610cbe91906135ed565b1015610cff576040517f08c379a0000000000000000000000000000000000000000000000000000000008152600401610cf690613677565b60405180910390fd5b610d07611496565b73ffffffffffffffffffffffffffffffffffffffff163373ffffffffffffffffffffffffffffffffffffffff161480610de5575069021e19e0c9bab2400000600960009054906101000a900473ffffffffffffffffffffffffffffffffffffffff1673ffffffffffffffffffffffffffffffffffffffff166370a08231336040518263ffffffff1660e01b8152600401610da19190613205565b602060405180830381865afa158015610dbe573d6000803e3d6000fd5b505050506040513d601f19601f82011682018060405250810190610de291906135ed565b10155b610e24576040517f08c379a0000000000000000000000000000000000000000000000000000000008152600401610e1b906136e3565b60405180910390fd5b600a811115610e68576040517f08c379a0000000000000000000000000000000000000000000000000000000008152600401610e5f9061374f565b60405180910390fd5b80600a8190555050565b610e7a61296a565b60008173ffffffffffffffffffffffffffffffffffffffff166370a08231306040518263ffffffff1660e01b8152600401610eb59190613205565b602060405180830381865afa158015610ed2573d6000803e3d6000fd5b505050506040513d601f19601f82011682018060405250810190610ef691906135ed565b905060008111610f3b576040517f08c379a0000000000000000000000000000000000000000000000000000000008152600401610f32906137bb565b60405180910390fd5b610f6633828473ffffffffffffffffffffffffffffffffffffffff166129b09092919063ffffffff16565b3373ffffffffffffffffffffffffffffffffffffffff167ff24ef89f38eadc1bde50701ad6e4d6d11a2dc24f7cf834a486991f38833285048383604051610fae9291906137db565b60405180910390a250610fbf612a2f565b50565b610fca6128e3565b610fd46000612a38565b565b600260009054906101000a900473ffffffffffffffffffffffffffffffffffffffff1681565b61100461296a565b600b60149054906101000a900460ff1615611054576040517f08c379a000000000000000000000000000000000000000000000000000000000815260040161104b90613850565b60405180910390fd5b600560008585600081811061106c5761106b613870565b5b90506020020160208101906110819190613014565b73ffffffffffffffffffffffffffffffffffffffff1673ffffffffffffffffffffffffffffffffffffffff16815260200190815260200160002060009054906101000a900460ff16801561115457506005600085856001888890506110e691906138ce565b8181106110f6576110f5613870565b5b905060200201602081019061110b9190613014565b73ffffffffffffffffffffffffffffffffffffffff1673ffffffffffffffffffffffffffffffffffffffff16815260200190815260200160002060009054906101000a900460ff165b611193576040517f08c379a000000000000000000000000000000000000000000000000000000000815260040161118a9061394e565b60405180910390fd5b60006103e8600a54886111a6919061396e565b6111b091906139df565b9050600081886111c091906138ce565b905061121733308a898960008181106111dc576111db613870565b5b90506020020160208101906111f19190613014565b73ffffffffffffffffffffffffffffffffffffffff16612afc909392919063ffffffff16565b61128c600b60009054906101000a900473ffffffffffffffffffffffffffffffffffffffff16838888600081811061125257611251613870565b5b90506020020160208101906112679190613014565b73ffffffffffffffffffffffffffffffffffffffff166129b09092919063ffffffff16565b611301600260009054906101000a900473ffffffffffffffffffffffffffffffffffffffff1682888860008181106112c7576112c6613870565b5b90506020020160208101906112dc9190613014565b73ffffffffffffffffffffffffffffffffffffffff16612b7e9092919063ffffffff16565b6000600260009054906101000a900473ffffffffffffffffffffffffffffffffffffffff1673ffffffffffffffffffffffffffffffffffffffff166338ed1739838a8a8a8a8a426113529190613a10565b6040518763ffffffff1660e01b815260040161137396959493929190613af8565b6000604051808303816000875af1158015611392573d6000803e3d6000fd5b505050506040513d6000823e3d601f19601f820116820180604052508101906113bb9190613ca3565b90503373ffffffffffffffffffffffffffffffffffffffff167f1745a70f0f93465f42d1028c49fa4eefc4f97834f10ff14be30cf776f57a353788888c856001875161140791906138ce565b8151811061141857611417613870565b5b60200260200101516040516114309493929190613cec565b60405180910390a2505050611443612a2f565b505050505050565b6004602052816000526040600020602052806000526040600020600091509150505481565b600360009054906101000a900473ffffffffffffffffffffffffffffffffffffffff1681565b60008060009054906101000a900473ffffffffffffffffffffffffffffffffffffffff16905090565b600080600267ffffffffffffffff8111156114dd576114dc613b65565b5b60405190808252806020026020018201604052801561150b5781602001602082028036833780820191505090505b509050838160008151811061152357611522613870565b5b602002602001019073ffffffffffffffffffffffffffffffffffffffff16908173ffffffffffffffffffffffffffffffffffffffff1681525050828160018151811061157257611571613870565b5b602002602001019073ffffffffffffffffffffffffffffffffffffffff16908173ffffffffffffffffffffffffffffffffffffffff16815250506000600260009054906101000a900473ffffffffffffffffffffffffffffffffffffffff1673ffffffffffffffffffffffffffffffffffffffff1663d06ca61f670de0b6b3a7640000846040518363ffffffff1660e01b8152600401611613929190613ded565b600060405180830381865afa158015611630573d6000803e3d6000fd5b505050506040513d6000823e3d601f19601f820116820180604052508101906116599190613ca3565b90508060018151811061166f5761166e613870565b5b60200260200101519250505092915050565b6116896128e3565b6000600b60146101000a81548160ff0219169083151502179055503373ffffffffffffffffffffffffffffffffffffffff167f5b65b0c1363b3003db9bcc5e1fd8805a6d6bf5bf6dc9d3431ee4494cd7d1176660405160405180910390a2565b6000806116f461296a565b600b60149054906101000a900460ff1615611744576040517f08c379a000000000000000000000000000000000000000000000000000000000815260040161173b90613850565b60405180910390fd5b6000600360009054906101000a900473ffffffffffffffffffffffffffffffffffffffff1673ffffffffffffffffffffffffffffffffffffffff1663e6a439058b8b6040518363ffffffff1660e01b81526004016117a392919061356d565b602060405180830381865afa1580156117c0573d6000803e3d6000fd5b505050506040513d601f19601f820116820180604052508101906117e491906135ab565b905061181333308a8473ffffffffffffffffffffffffffffffffffffffff16612afc909392919063ffffffff16565b611860600260009054906101000a900473ffffffffffffffffffffffffffffffffffffffff16898373ffffffffffffffffffffffffffffffffffffffff16612b7e9092919063ffffffff16565b600260009054906101000a900473ffffffffffffffffffffffffffffffffffffffff1673ffffffffffffffffffffffffffffffffffffffff1663baa2abde8b8b8b8b8b8b8b426118b09190613a10565b6040518863ffffffff1660e01b81526004016118d29796959493929190613e1d565b60408051808303816000875af11580156118f0573d6000803e3d6000fd5b505050506040513d601f19601f820116820180604052508101906119149190613e8c565b809350819450505087600460008c73ffffffffffffffffffffffffffffffffffffffff1673ffffffffffffffffffffffffffffffffffffffff16815260200190815260200160002060008b73ffffffffffffffffffffffffffffffffffffffff1673ffffffffffffffffffffffffffffffffffffffff16815260200190815260200160002060008282546119a891906138ce565b925050819055503373ffffffffffffffffffffffffffffffffffffffff167fd0aab0ed3b13a2551c0f217aa790c138f132954984c5d047ae27188f7205de118b8b86866040516119fb9493929190613ecc565b60405180910390a250611a0c612a2f565b97509795505050505050565b600b60149054906101000a900460ff1615611a68576040517f08c379a0000000000000000000000000000000000000000000000000000000008152600401611a5f90613850565b60405180910390fd5b610e10600860008473ffffffffffffffffffffffffffffffffffffffff1673ffffffffffffffffffffffffffffffffffffffff16815260200190815260200160002060008373ffffffffffffffffffffffffffffffffffffffff1673ffffffffffffffffffffffffffffffffffffffff16815260200190815260200160002054611af29190613a10565b421015611b34576040517f08c379a0000000000000000000000000000000000000000000000000000000008152600401611b2b90613f83565b60405180910390fd5b6000600267ffffffffffffffff811115611b5157611b50613b65565b5b604051908082528060200260200182016040528015611b7f5781602001602082028036833780820191505090505b5090508281600081518110611b9757611b96613870565b5b602002602001019073ffffffffffffffffffffffffffffffffffffffff16908173ffffffffffffffffffffffffffffffffffffffff16815250508181600181518110611be657611be5613870565b5b602002602001019073ffffffffffffffffffffffffffffffffffffffff16908173ffffffffffffffffffffffffffffffffffffffff16815250506000600260009054906101000a900473ffffffffffffffffffffffffffffffffffffffff1673ffffffffffffffffffffffffffffffffffffffff1663d06ca61f670de0b6b3a7640000846040518363ffffffff1660e01b8152600401611c87929190613ded565b600060405180830381865afa158015611ca4573d6000803e3d6000fd5b505050506040513d6000823e3d601f19601f82011682018060405250810190611ccd9190613ca3565b9050600081600181518110611ce557611ce4613870565b5b6020026020010151905042600860008773ffffffffffffffffffffffffffffffffffffffff1673ffffffffffffffffffffffffffffffffffffffff16815260200190815260200160002060008673ffffffffffffffffffffffffffffffffffffffff1673ffffffffffffffffffffffffffffffffffffffff168152602001908152602001600020819055508373ffffffffffffffffffffffffffffffffffffffff168573ffffffffffffffffffffffffffffffffffffffff167fb71c154260e8508e211e2ace194becba2c6d7e727c3ed292fe4787458969cd1083604051611dcd9190612e4c565b60405180910390a35050505050565b600b60009054906101000a900473ffffffffffffffffffffffffffffffffffffffff1681565b611e0a6128e3565b600073ffffffffffffffffffffffffffffffffffffffff168173ffffffffffffffffffffffffffffffffffffffff1603611e79576040517f08c379a0000000000000000000000000000000000000000000000000000000008152600401611e7090613fef565b60405180910390fd5b80600b60006101000a81548173ffffffffffffffffffffffffffffffffffffffff021916908373ffffffffffffffffffffffffffffffffffffffff1602179055508073ffffffffffffffffffffffffffffffffffffffff167fe5693914d19c789bdee50a362998c0bc8d035a835f9871da5d51152f0582c34f60405160405180910390a250565b610e1081565b60606007805480602002602001604051908101604052809291908181526020016000905b8282101561205e57838290600052602060002090600302016040518060600160405290816000820160009054906101000a900473ffffffffffffffffffffffffffffffffffffffff1673ffffffffffffffffffffffffffffffffffffffff1673ffffffffffffffffffffffffffffffffffffffff1681526020016001820160009054906101000a900473ffffffffffffffffffffffffffffffffffffffff1673ffffffffffffffffffffffffffffffffffffffff1673ffffffffffffffffffffffffffffffffffffffff1681526020016002820160009054906101000a900473ffffffffffffffffffffffffffffffffffffffff1673ffffffffffffffffffffffffffffffffffffffff1673ffffffffffffffffffffffffffffffffffffffff168152505081526020019060010190611f2a565b50505050905090565b60056020528060005260406000206000915054906101000a900460ff1681565b6007818154811061209757600080fd5b90600052602060002090600302016000915090508060000160009054906101000a900473ffffffffffffffffffffffffffffffffffffffff16908060010160009054906101000a900473ffffffffffffffffffffffffffffffffffffffff16908060020160009054906101000a900473ffffffffffffffffffffffffffffffffffffffff16905083565b6006602052816000526040600020602052806000526040600020600091509150505481565b600080600061215361296a565b600b60149054906101000a900460ff16156121a3576040517f08c379a000000000000000000000000000000000000000000000000000000000815260040161219a90613850565b60405180910390fd5b600560008c73ffffffffffffffffffffffffffffffffffffffff1673ffffffffffffffffffffffffffffffffffffffff16815260200190815260200160002060009054906101000a900460ff1680156122455750600560008b73ffffffffffffffffffffffffffffffffffffffff1673ffffffffffffffffffffffffffffffffffffffff16815260200190815260200160002060009054906101000a900460ff165b612284576040517f08c379a000000000000000000000000000000000000000000000000000000000815260040161227b9061394e565b60405180910390fd5b6122b133308b8e73ffffffffffffffffffffffffffffffffffffffff16612afc909392919063ffffffff16565b6122de33308a8d73ffffffffffffffffffffffffffffffffffffffff16612afc909392919063ffffffff16565b61232b600260009054906101000a900473ffffffffffffffffffffffffffffffffffffffff168a8d73ffffffffffffffffffffffffffffffffffffffff16612b7e9092919063ffffffff16565b612378600260009054906101000a900473ffffffffffffffffffffffffffffffffffffffff16898c73ffffffffffffffffffffffffffffffffffffffff16612b7e9092919063ffffffff16565b600260009054906101000a900473ffffffffffffffffffffffffffffffffffffffff1673ffffffffffffffffffffffffffffffffffffffff1663e8e337008c8c8c8c8c8c8c8c426123c99190613a10565b6040518963ffffffff1660e01b81526004016123ec98979695949392919061400f565b6060604051808303816000875af115801561240b573d6000803e3d6000fd5b505050506040513d601f19601f8201168201806040525081019061242f919061408d565b80935081945082955050505080600460008d73ffffffffffffffffffffffffffffffffffffffff1673ffffffffffffffffffffffffffffffffffffffff16815260200190815260200160002060008c73ffffffffffffffffffffffffffffffffffffffff1673ffffffffffffffffffffffffffffffffffffffff16815260200190815260200160002060008282546124c79190613a10565b9250508190555060006103e8600a836124e0919061396e565b6124ea91906139df565b905080600660008e73ffffffffffffffffffffffffffffffffffffffff1673ffffffffffffffffffffffffffffffffffffffff16815260200190815260200160002060008d73ffffffffffffffffffffffffffffffffffffffff1673ffffffffffffffffffffffffffffffffffffffff16815260200190815260200160002060008282546125789190613a10565b925050819055503373ffffffffffffffffffffffffffffffffffffffff167fb5bf3f2c68363aa6e695c29010485bcfecb5439239c6b1306fdec5b26cb7c62e8d8d87876040516125cb9493929190613ecc565b60405180910390a2506125dc612a2f565b985098509895505050505050565b6125f261296a565b600b60149054906101000a900460ff1615612642576040517f08c379a000000000000000000000000000000000000000000000000000000000815260040161263990613850565b60405180910390fd5b6000600660008473ffffffffffffffffffffffffffffffffffffffff1673ffffffffffffffffffffffffffffffffffffffff16815260200190815260200160002060008373ffffffffffffffffffffffffffffffffffffffff1673ffffffffffffffffffffffffffffffffffffffff16815260200190815260200160002054905060008111612706576040517f08c379a00000000000000000000000000000000000000000000000000000000081526004016126fd9061412c565b60405180910390fd5b6000600660008573ffffffffffffffffffffffffffffffffffffffff1673ffffffffffffffffffffffffffffffffffffffff16815260200190815260200160002060008473ffffffffffffffffffffffffffffffffffffffff1673ffffffffffffffffffffffffffffffffffffffff168152602001908152602001600020819055506127b333828573ffffffffffffffffffffffffffffffffffffffff166129b09092919063ffffffff16565b3373ffffffffffffffffffffffffffffffffffffffff167fe4c49aa34a1d4a26159641c7332002cd8e3bed21b8c3e614040e892b9c13ea528484846040516127fd9392919061414c565b60405180910390a25061280e612a2f565b5050565b61281a6128e3565b600073ffffffffffffffffffffffffffffffffffffffff168173ffffffffffffffffffffffffffffffffffffffff160361288c5760006040517f1e4fbdf70000000000000000000000000000000000000000000000000000000081526004016128839190613205565b60405180910390fd5b61289581612a38565b50565b600960009054906101000a900473ffffffffffffffffffffffffffffffffffffffff1681565b6008602052816000526040600020602052806000526040600020600091509150505481565b6128eb612c1a565b73ffffffffffffffffffffffffffffffffffffffff16612909611496565b73ffffffffffffffffffffffffffffffffffffffff16146129685761292c612c1a565b6040517f118cdaa700000000000000000000000000000000000000000000000000000000815260040161295f9190613205565b60405180910390fd5b565b6002600154036129a6576040517f3ee5aeb500000000000000000000000000000000000000000000000000000000815260040160405180910390fd5b6002600181905550565b612a2a838473ffffffffffffffffffffffffffffffffffffffff1663a9059cbb85856040516024016129e39291906137db565b604051602081830303815290604052915060e01b6020820180517bffffffffffffffffffffffffffffffffffffffffffffffffffffffff8381831617835250505050612c22565b505050565b60018081905550565b60008060009054906101000a900473ffffffffffffffffffffffffffffffffffffffff169050816000806101000a81548173ffffffffffffffffffffffffffffffffffffffff021916908373ffffffffffffffffffffffffffffffffffffffff1602179055508173ffffffffffffffffffffffffffffffffffffffff168173ffffffffffffffffffffffffffffffffffffffff167f8be0079c531659141344cd1fd0a4f28419497f9722a3daafe3b4186f6b6457e060405160405180910390a35050565b612b78848573ffffffffffffffffffffffffffffffffffffffff166323b872dd868686604051602401612b319392919061414c565b604051602081830303815290604052915060e01b6020820180517bffffffffffffffffffffffffffffffffffffffffffffffffffffffff8381831617835250505050612c22565b50505050565b60008373ffffffffffffffffffffffffffffffffffffffff1663dd62ed3e30856040518363ffffffff1660e01b8152600401612bbb92919061356d565b602060405180830381865afa158015612bd8573d6000803e3d6000fd5b505050506040513d601f19601f82011682018060405250810190612bfc91906135ed565b9050612c1484848484612c0f9190613a10565b612cc4565b50505050565b600033905090565b600080602060008451602086016000885af180612c45576040513d6000823e3d81fd5b3d925060005191505060008214612c60576001811415612c7c565b60008473ffffffffffffffffffffffffffffffffffffffff163b145b15612cbe57836040517f5274afe7000000000000000000000000000000000000000000000000000000008152600401612cb59190613205565b60405180910390fd5b50505050565b60008373ffffffffffffffffffffffffffffffffffffffff1663095ea7b38484604051602401612cf59291906137db565b604051602081830303815290604052915060e01b6020820180517bffffffffffffffffffffffffffffffffffffffffffffffffffffffff83818316178352505050509050612d438482612dd3565b612dcd57612dc2848573ffffffffffffffffffffffffffffffffffffffff1663095ea7b3866000604051602401612d7b9291906141be565b604051602081830303815290604052915060e01b6020820180517bffffffffffffffffffffffffffffffffffffffffffffffffffffffff8381831617835250505050612c22565b612dcc8482612c22565b5b50505050565b6000806000806020600086516020880160008a5af192503d91506000519050828015612e28575060008214612e0b5760018114612e27565b60008673ffffffffffffffffffffffffffffffffffffffff163b115b5b935050505092915050565b6000819050919050565b612e4681612e33565b82525050565b6000602082019050612e616000830184612e3d565b92915050565b6000604051905090565b600080fd5b600080fd5b600073ffffffffffffffffffffffffffffffffffffffff82169050919050565b6000612ea682612e7b565b9050919050565b612eb681612e9b565b8114612ec157600080fd5b50565b600081359050612ed381612ead565b92915050565b60008115159050919050565b612eee81612ed9565b8114612ef957600080fd5b50565b600081359050612f0b81612ee5565b92915050565b60008060408385031215612f2857612f27612e71565b5b6000612f3685828601612ec4565b9250506020612f4785828601612efc565b9150509250929050565b60008060408385031215612f6857612f67612e71565b5b6000612f7685828601612ec4565b9250506020612f8785828601612ec4565b9150509250929050565b612f9a81612ed9565b82525050565b6000602082019050612fb56000830184612f91565b92915050565b612fc481612e33565b8114612fcf57600080fd5b50565b600081359050612fe181612fbb565b92915050565b600060208284031215612ffd57612ffc612e71565b5b600061300b84828501612fd2565b91505092915050565b60006020828403121561302a57613029612e71565b5b600061303884828501612ec4565b91505092915050565b6000819050919050565b600061306661306161305c84612e7b565b613041565b612e7b565b9050919050565b60006130788261304b565b9050919050565b600061308a8261306d565b9050919050565b61309a8161307f565b82525050565b60006020820190506130b56000830184613091565b92915050565b600080fd5b600080fd5b600080fd5b60008083601f8401126130e0576130df6130bb565b5b8235905067ffffffffffffffff8111156130fd576130fc6130c0565b5b602083019150836020820283011115613119576131186130c5565b5b9250929050565b60008060008060008060a0878903121561313d5761313c612e71565b5b600061314b89828a01612fd2565b965050602061315c89828a01612fd2565b955050604087013567ffffffffffffffff81111561317d5761317c612e76565b5b61318989828a016130ca565b9450945050606061319c89828a01612ec4565b92505060806131ad89828a01612fd2565b9150509295509295509295565b60006131c58261306d565b9050919050565b6131d5816131ba565b82525050565b60006020820190506131f060008301846131cc565b92915050565b6131ff81612e9b565b82525050565b600060208201905061321a60008301846131f6565b92915050565b600080600080600080600060e0888a03121561323f5761323e612e71565b5b600061324d8a828b01612ec4565b975050602061325e8a828b01612ec4565b965050604061326f8a828b01612fd2565b95505060606132808a828b01612fd2565b94505060806132918a828b01612fd2565b93505060a06132a28a828b01612ec4565b92505060c06132b38a828b01612fd2565b91505092959891949750929550565b60006040820190506132d76000830185612e3d565b6132e46020830184612e3d565b9392505050565b600081519050919050565b600082825260208201905092915050565b6000819050602082019050919050565b61332081612e9b565b82525050565b60608201600082015161333c6000850182613317565b50602082015161334f6020850182613317565b5060408201516133626040850182613317565b50505050565b60006133748383613326565b60608301905092915050565b6000602082019050919050565b6000613398826132eb565b6133a281856132f6565b93506133ad83613307565b8060005b838110156133de5781516133c58882613368565b97506133d083613380565b9250506001810190506133b1565b5085935050505092915050565b60006020820190508181036000830152613405818461338d565b905092915050565b600060608201905061342260008301866131f6565b61342f60208301856131f6565b61343c60408301846131f6565b949350505050565b600080600080600080600080610100898b03121561346557613464612e71565b5b60006134738b828c01612ec4565b98505060206134848b828c01612ec4565b97505060406134958b828c01612fd2565b96505060606134a68b828c01612fd2565b95505060806134b78b828c01612fd2565b94505060a06134c88b828c01612fd2565b93505060c06134d98b828c01612ec4565b92505060e06134ea8b828c01612fd2565b9150509295985092959890939650565b600060608201905061350f6000830186612e3d565b61351c6020830185612e3d565b6135296040830184612e3d565b949350505050565b600061353c8261306d565b9050919050565b61354c81613531565b82525050565b60006020820190506135676000830184613543565b92915050565b600060408201905061358260008301856131f6565b61358f60208301846131f6565b9392505050565b6000815190506135a581612ead565b92915050565b6000602082840312156135c1576135c0612e71565b5b60006135cf84828501613596565b91505092915050565b6000815190506135e781612fbb565b92915050565b60006020828403121561360357613602612e71565b5b6000613611848285016135d8565b91505092915050565b600082825260208201905092915050565b7f496e73756666696369656e7420676f7665726e616e636520746f6b656e730000600082015250565b6000613661601e8361361a565b915061366c8261362b565b602082019050919050565b6000602082019050818103600083015261369081613654565b9050919050565b7f4e6f7420617574686f72697a6564000000000000000000000000000000000000600082015250565b60006136cd600e8361361a565b91506136d882613697565b602082019050919050565b600060208201905081810360008301526136fc816136c0565b9050919050565b7f4665652063616e6e6f7420657863656564203125000000000000000000000000600082015250565b600061373960148361361a565b915061374482613703565b602082019050919050565b600060208201905081810360008301526137688161372c565b9050919050565b7f4e6f2062616c616e636520746f20776974686472617700000000000000000000600082015250565b60006137a560168361361a565b91506137b08261376f565b602082019050919050565b600060208201905081810360008301526137d481613798565b9050919050565b60006040820190506137f060008301856131f6565b6137fd6020830184612e3d565b9392505050565b7f436f6e7472616374206973207061757365640000000000000000000000000000600082015250565b600061383a60128361361a565b915061384582613804565b602082019050919050565b600060208201905081810360008301526138698161382d565b9050919050565b7f4e487b7100000000000000000000000000000000000000000000000000000000600052603260045260246000fd5b7f4e487b7100000000000000000000000000000000000000000000000000000000600052601160045260246000fd5b60006138d982612e33565b91506138e483612e33565b92508282039050818111156138fc576138fb61389f565b5b92915050565b7f546f6b656e206e6f742077686974656c69737465640000000000000000000000600082015250565b600061393860158361361a565b915061394382613902565b602082019050919050565b600060208201905081810360008301526139678161392b565b9050919050565b600061397982612e33565b915061398483612e33565b925082820261399281612e33565b915082820484148315176139a9576139a861389f565b5b5092915050565b7f4e487b7100000000000000000000000000000000000000000000000000000000600052601260045260246000fd5b60006139ea82612e33565b91506139f583612e33565b925082613a0557613a046139b0565b5b828204905092915050565b6000613a1b82612e33565b9150613a2683612e33565b9250828201905080821115613a3e57613a3d61389f565b5b92915050565b600082825260208201905092915050565b6000819050919050565b6000613a6b8383613317565b60208301905092915050565b6000613a866020840184612ec4565b905092915050565b6000602082019050919050565b6000613aa78385613a44565b9350613ab282613a55565b8060005b85811015613aeb57613ac88284613a77565b613ad28882613a5f565b9750613add83613a8e565b925050600181019050613ab6565b5085925050509392505050565b600060a082019050613b0d6000830189612e3d565b613b1a6020830188612e3d565b8181036040830152613b2d818688613a9b565b9050613b3c60608301856131f6565b613b496080830184612e3d565b979650505050505050565b6000601f19601f8301169050919050565b7f4e487b7100000000000000000000000000000000000000000000000000000000600052604160045260246000fd5b613b9d82613b54565b810181811067ffffffffffffffff82111715613bbc57613bbb613b65565b5b80604052505050565b6000613bcf612e67565b9050613bdb8282613b94565b919050565b600067ffffffffffffffff821115613bfb57613bfa613b65565b5b602082029050602081019050919050565b6000613c1f613c1a84613be0565b613bc5565b90508083825260208201905060208402830185811115613c4257613c416130c5565b5b835b81811015613c6b5780613c5788826135d8565b845260208401935050602081019050613c44565b5050509392505050565b600082601f830112613c8a57613c896130bb565b5b8151613c9a848260208601613c0c565b91505092915050565b600060208284031215613cb957613cb8612e71565b5b600082015167ffffffffffffffff811115613cd757613cd6612e76565b5b613ce384828501613c75565b91505092915050565b60006060820190508181036000830152613d07818688613a9b565b9050613d166020830185612e3d565b613d236040830184612e3d565b95945050505050565b6000819050919050565b6000613d51613d4c613d4784613d2c565b613041565b612e33565b9050919050565b613d6181613d36565b82525050565b600081519050919050565b6000819050602082019050919050565b6000602082019050919050565b6000613d9a82613d67565b613da48185613a44565b9350613daf83613d72565b8060005b83811015613de0578151613dc78882613a5f565b9750613dd283613d82565b925050600181019050613db3565b5085935050505092915050565b6000604082019050613e026000830185613d58565b8181036020830152613e148184613d8f565b90509392505050565b600060e082019050613e32600083018a6131f6565b613e3f60208301896131f6565b613e4c6040830188612e3d565b613e596060830187612e3d565b613e666080830186612e3d565b613e7360a08301856131f6565b613e8060c0830184612e3d565b98975050505050505050565b60008060408385031215613ea357613ea2612e71565b5b6000613eb1858286016135d8565b9250506020613ec2858286016135d8565b9150509250929050565b6000608082019050613ee160008301876131f6565b613eee60208301866131f6565b613efb6040830185612e3d565b613f086060830184612e3d565b95945050505050565b7f50726963652063616e206f6e6c792062652075706461746564206f6e6365207060008201527f657220686f757200000000000000000000000000000000000000000000000000602082015250565b6000613f6d60278361361a565b9150613f7882613f11565b604082019050919050565b60006020820190508181036000830152613f9c81613f60565b9050919050565b7f496e76616c69642066656520636f6c6c6563746f722061646472657373000000600082015250565b6000613fd9601d8361361a565b9150613fe482613fa3565b602082019050919050565b6000602082019050818103600083015261400881613fcc565b9050919050565b600061010082019050614025600083018b6131f6565b614032602083018a6131f6565b61403f6040830189612e3d565b61404c6060830188612e3d565b6140596080830187612e3d565b61406660a0830186612e3d565b61407360c08301856131f6565b61408060e0830184612e3d565b9998505050505050505050565b6000806000606084860312156140a6576140a5612e71565b5b60006140b4868287016135d8565b93505060206140c5868287016135d8565b92505060406140d6868287016135d8565b9150509250925092565b7f4e6f207265776172647320617661696c61626c65000000000000000000000000600082015250565b600061411660148361361a565b9150614121826140e0565b602082019050919050565b6000602082019050818103600083015261414581614109565b9050919050565b600060608201905061416160008301866131f6565b61416e60208301856131f6565b61417b6040830184612e3d565b949350505050565b6000819050919050565b60006141a86141a361419e84614183565b613041565b612e33565b9050919050565b6141b88161418d565b82525050565b60006040820190506141d360008301856131f6565b6141e060208301846141af565b939250505056fea264697066735822122094986bcb85f6edd03811f9cbfc638cdef522fd346be7837c8ebd82fde7ec1a8064736f6c63430008140033",
  "linkReferences": {},
  "deployedLinkReferences": {}
}