{
  "_format": "hh-sol-artifact-1",
  "contractName": "MyDex",
  "sourceName": "contracts/MyDex.sol",
  "abi": [
    {
      "inputs": [
        {
          "internalType": "address",
          "name": "_uniswapRouterAddress",
          "type": "address"
        },
        {
          "internalType": "address",
          "name": "_uniswapFactoryAddress",
          "type": "address"
        },
        {
          "internalType": "address",
          "name": "_tokenA",
          "type": "address"
        },
        {
          "internalType": "address",
          "name": "_tokenB",
          "type": "address"
        }
      ],
      "stateMutability": "nonpayable",
      "type": "constructor"
    },
    {
      "inputs": [
        {
          "internalType": "uint256",
          "name": "amountADesired",
          "type": "uint256"
        },
        {
          "internalType": "uint256",
          "name": "amountBDesired",
          "type": "uint256"
        },
        {
          "internalType": "uint256",
          "name": "amountAMin",
          "type": "uint256"
        },
        {
          "internalType": "uint256",
          "name": "amountBMin",
          "type": "uint256"
        },
        {
          "internalType": "address",
          "name": "to",
          "type": "address"
        },
        {
          "internalType": "uint256",
          "name": "deadline",
          "type": "uint256"
        }
      ],
      "name": "addLiquidity",
      "outputs": [],
      "stateMutability": "nonpayable",
      "type": "function"
    },
    {
      "inputs": [],
      "name": "createPair",
      "outputs": [
        {
          "internalType": "address",
          "name": "pair",
          "type": "address"
        }
      ],
      "stateMutability": "nonpayable",
      "type": "function"
    },
    {
      "inputs": [],
      "name": "getPair",
      "outputs": [
        {
          "internalType": "address",
          "name": "pair",
          "type": "address"
        }
      ],
      "stateMutability": "view",
      "type": "function"
    },
    {
      "inputs": [
        {
          "internalType": "uint256",
          "name": "liquidity",
          "type": "uint256"
        },
        {
          "internalType": "uint256",
          "name": "amountAMin",
          "type": "uint256"
        },
        {
          "internalType": "uint256",
          "name": "amountBMin",
          "type": "uint256"
        },
        {
          "internalType": "address",
          "name": "to",
          "type": "address"
        },
        {
          "internalType": "uint256",
          "name": "deadline",
          "type": "uint256"
        }
      ],
      "name": "removeLiquidity",
      "outputs": [],
      "stateMutability": "nonpayable",
      "type": "function"
    },
    {
      "inputs": [
        {
          "internalType": "uint256",
          "name": "amountIn",
          "type": "uint256"
        },
        {
          "internalType": "uint256",
          "name": "amountOutMin",
          "type": "uint256"
        },
        {
          "internalType": "address[]",
          "name": "path",
          "type": "address[]"
        },
        {
          "internalType": "address",
          "name": "to",
          "type": "address"
        },
        {
          "internalType": "uint256",
          "name": "deadline",
          "type": "uint256"
        }
      ],
      "name": "swapTokensForTokens",
      "outputs": [],
      "stateMutability": "nonpayable",
      "type": "function"
    },
    {
      "inputs": [],
      "name": "tokenA",
      "outputs": [
        {
          "internalType": "address",
          "name": "",
          "type": "address"
        }
      ],
      "stateMutability": "view",
      "type": "function"
    },
    {
      "inputs": [],
      "name": "tokenB",
      "outputs": [
        {
          "internalType": "address",
          "name": "",
          "type": "address"
        }
      ],
      "stateMutability": "view",
      "type": "function"
    },
    {
      "inputs": [],
      "name": "uniswapFactory",
      "outputs": [
        {
          "internalType": "contract IUniswapV2Factory",
          "name": "",
          "type": "address"
        }
      ],
      "stateMutability": "view",
      "type": "function"
    },
    {
      "inputs": [],
      "name": "uniswapRouter",
      "outputs": [
        {
          "internalType": "contract IUniswapV2Router02",
          "name": "",
          "type": "address"
        }
      ],
      "stateMutability": "view",
      "type": "function"
    }
  ],
  "bytecode": "0x60806040523480156200001157600080fd5b5060405162001a6e38038062001a6e8339818101604052810190620000379190620001ae565b836000806101000a81548173ffffffffffffffffffffffffffffffffffffffff021916908373ffffffffffffffffffffffffffffffffffffffff16021790555082600160006101000a81548173ffffffffffffffffffffffffffffffffffffffff021916908373ffffffffffffffffffffffffffffffffffffffff16021790555081600260006101000a81548173ffffffffffffffffffffffffffffffffffffffff021916908373ffffffffffffffffffffffffffffffffffffffff16021790555080600360006101000a81548173ffffffffffffffffffffffffffffffffffffffff021916908373ffffffffffffffffffffffffffffffffffffffff1602179055505050505062000220565b600080fd5b600073ffffffffffffffffffffffffffffffffffffffff82169050919050565b6000620001768262000149565b9050919050565b620001888162000169565b81146200019457600080fd5b50565b600081519050620001a8816200017d565b92915050565b60008060008060808587031215620001cb57620001ca62000144565b5b6000620001db8782880162000197565b9450506020620001ee8782880162000197565b9350506040620002018782880162000197565b9250506060620002148782880162000197565b91505092959194509250565b61183e80620002306000396000f3fe608060405234801561001057600080fd5b50600436106100935760003560e01c80638f8b8325116100665780638f8b8325146101105780639e78fb4f1461012c578063c1f1b1b51461014a578063ded998b914610168578063ed856cdc1461018457610093565b80630fc63d10146100985780635f64b55b146100b6578063735de9f7146100d45780638bdb2afa146100f2575b600080fd5b6100a06101a0565b6040516100ad9190610d0e565b60405180910390f35b6100be6101c6565b6040516100cb9190610d0e565b60405180910390f35b6100dc6101ec565b6040516100e99190610d88565b60405180910390f35b6100fa610210565b6040516101079190610dc4565b60405180910390f35b61012a60048036038101906101259190610eba565b610236565b005b610134610468565b6040516101419190610d0e565b60405180910390f35b610152610553565b60405161015f9190610d0e565b60405180910390f35b610182600480360381019061017d9190610f54565b61063c565b005b61019e60048036038101906101999190610fe1565b610bcb565b005b600260009054906101000a900473ffffffffffffffffffffffffffffffffffffffff1681565b600360009054906101000a900473ffffffffffffffffffffffffffffffffffffffff1681565b60008054906101000a900473ffffffffffffffffffffffffffffffffffffffff1681565b600160009054906101000a900473ffffffffffffffffffffffffffffffffffffffff1681565b8042610242919061108b565b905083836000818110610258576102576110bf565b5b905060200201602081019061026d91906110ee565b73ffffffffffffffffffffffffffffffffffffffff166323b872dd3330896040518463ffffffff1660e01b81526004016102a99392919061112a565b6020604051808303816000875af11580156102c8573d6000803e3d6000fd5b505050506040513d601f19601f820116820180604052508101906102ec9190611199565b5083836000818110610301576103006110bf565b5b905060200201602081019061031691906110ee565b73ffffffffffffffffffffffffffffffffffffffff1663095ea7b360008054906101000a900473ffffffffffffffffffffffffffffffffffffffff16886040518363ffffffff1660e01b81526004016103709291906111c6565b6020604051808303816000875af115801561038f573d6000803e3d6000fd5b505050506040513d601f19601f820116820180604052508101906103b39190611199565b5060008054906101000a900473ffffffffffffffffffffffffffffffffffffffff1673ffffffffffffffffffffffffffffffffffffffff166338ed17398787878787876040518763ffffffff1660e01b8152600401610417969594939291906112b2565b6000604051808303816000875af1158015610436573d6000803e3d6000fd5b505050506040513d6000823e3d601f19601f8201168201806040525081019061045f9190611472565b50505050505050565b6000600160009054906101000a900473ffffffffffffffffffffffffffffffffffffffff1673ffffffffffffffffffffffffffffffffffffffff1663c9c65396600260009054906101000a900473ffffffffffffffffffffffffffffffffffffffff16600360009054906101000a900473ffffffffffffffffffffffffffffffffffffffff166040518363ffffffff1660e01b815260040161050b9291906114bb565b6020604051808303816000875af115801561052a573d6000803e3d6000fd5b505050506040513d601f19601f8201168201806040525081019061054e91906114f9565b905090565b6000600160009054906101000a900473ffffffffffffffffffffffffffffffffffffffff1673ffffffffffffffffffffffffffffffffffffffff1663e6a43905600260009054906101000a900473ffffffffffffffffffffffffffffffffffffffff16600360009054906101000a900473ffffffffffffffffffffffffffffffffffffffff166040518363ffffffff1660e01b81526004016105f69291906114bb565b602060405180830381865afa158015610613573d6000803e3d6000fd5b505050506040513d601f19601f8201168201806040525081019061063791906114f9565b905090565b85600260009054906101000a900473ffffffffffffffffffffffffffffffffffffffff1673ffffffffffffffffffffffffffffffffffffffff1663dd62ed3e33306040518363ffffffff1660e01b815260040161069a9291906114bb565b602060405180830381865afa1580156106b7573d6000803e3d6000fd5b505050506040513d601f19601f820116820180604052508101906106db9190611526565b101561071c576040517f08c379a0000000000000000000000000000000000000000000000000000000008152600401610713906115d6565b60405180910390fd5b84600360009054906101000a900473ffffffffffffffffffffffffffffffffffffffff1673ffffffffffffffffffffffffffffffffffffffff1663dd62ed3e33306040518363ffffffff1660e01b815260040161077a9291906114bb565b602060405180830381865afa158015610797573d6000803e3d6000fd5b505050506040513d601f19601f820116820180604052508101906107bb9190611526565b10156107fc576040517f08c379a00000000000000000000000000000000000000000000000000000000081526004016107f390611668565b60405180910390fd5b8042610808919061108b565b9050600260009054906101000a900473ffffffffffffffffffffffffffffffffffffffff1673ffffffffffffffffffffffffffffffffffffffff166323b872dd3330896040518463ffffffff1660e01b81526004016108699392919061112a565b6020604051808303816000875af1158015610888573d6000803e3d6000fd5b505050506040513d601f19601f820116820180604052508101906108ac9190611199565b50600360009054906101000a900473ffffffffffffffffffffffffffffffffffffffff1673ffffffffffffffffffffffffffffffffffffffff166323b872dd3330886040518463ffffffff1660e01b815260040161090c9392919061112a565b6020604051808303816000875af115801561092b573d6000803e3d6000fd5b505050506040513d601f19601f8201168201806040525081019061094f9190611199565b50600260009054906101000a900473ffffffffffffffffffffffffffffffffffffffff1673ffffffffffffffffffffffffffffffffffffffff1663095ea7b360008054906101000a900473ffffffffffffffffffffffffffffffffffffffff16886040518363ffffffff1660e01b81526004016109cd9291906111c6565b6020604051808303816000875af11580156109ec573d6000803e3d6000fd5b505050506040513d601f19601f82011682018060405250810190610a109190611199565b50600360009054906101000a900473ffffffffffffffffffffffffffffffffffffffff1673ffffffffffffffffffffffffffffffffffffffff1663095ea7b360008054906101000a900473ffffffffffffffffffffffffffffffffffffffff16876040518363ffffffff1660e01b8152600401610a8e9291906111c6565b6020604051808303816000875af1158015610aad573d6000803e3d6000fd5b505050506040513d601f19601f82011682018060405250810190610ad19190611199565b5060008054906101000a900473ffffffffffffffffffffffffffffffffffffffff1673ffffffffffffffffffffffffffffffffffffffff1663e8e33700600260009054906101000a900473ffffffffffffffffffffffffffffffffffffffff16600360009054906101000a900473ffffffffffffffffffffffffffffffffffffffff168989898989896040518963ffffffff1660e01b8152600401610b7d989796959493929190611688565b6060604051808303816000875af1158015610b9c573d6000803e3d6000fd5b505050506040513d601f19601f82011682018060405250810190610bc09190611706565b505050505050505050565b8042610bd7919061108b565b905060008054906101000a900473ffffffffffffffffffffffffffffffffffffffff1673ffffffffffffffffffffffffffffffffffffffff1663baa2abde600260009054906101000a900473ffffffffffffffffffffffffffffffffffffffff16600360009054906101000a900473ffffffffffffffffffffffffffffffffffffffff1688888888886040518863ffffffff1660e01b8152600401610c829796959493929190611759565b60408051808303816000875af1158015610ca0573d6000803e3d6000fd5b505050506040513d601f19601f82011682018060405250810190610cc491906117c8565b50505050505050565b600073ffffffffffffffffffffffffffffffffffffffff82169050919050565b6000610cf882610ccd565b9050919050565b610d0881610ced565b82525050565b6000602082019050610d236000830184610cff565b92915050565b6000819050919050565b6000610d4e610d49610d4484610ccd565b610d29565b610ccd565b9050919050565b6000610d6082610d33565b9050919050565b6000610d7282610d55565b9050919050565b610d8281610d67565b82525050565b6000602082019050610d9d6000830184610d79565b92915050565b6000610dae82610d55565b9050919050565b610dbe81610da3565b82525050565b6000602082019050610dd96000830184610db5565b92915050565b6000604051905090565b600080fd5b600080fd5b6000819050919050565b610e0681610df3565b8114610e1157600080fd5b50565b600081359050610e2381610dfd565b92915050565b600080fd5b600080fd5b600080fd5b60008083601f840112610e4e57610e4d610e29565b5b8235905067ffffffffffffffff811115610e6b57610e6a610e2e565b5b602083019150836020820283011115610e8757610e86610e33565b5b9250929050565b610e9781610ced565b8114610ea257600080fd5b50565b600081359050610eb481610e8e565b92915050565b60008060008060008060a08789031215610ed757610ed6610de9565b5b6000610ee589828a01610e14565b9650506020610ef689828a01610e14565b955050604087013567ffffffffffffffff811115610f1757610f16610dee565b5b610f2389828a01610e38565b94509450506060610f3689828a01610ea5565b9250506080610f4789828a01610e14565b9150509295509295509295565b60008060008060008060c08789031215610f7157610f70610de9565b5b6000610f7f89828a01610e14565b9650506020610f9089828a01610e14565b9550506040610fa189828a01610e14565b9450506060610fb289828a01610e14565b9350506080610fc389828a01610ea5565b92505060a0610fd489828a01610e14565b9150509295509295509295565b600080600080600060a08688031215610ffd57610ffc610de9565b5b600061100b88828901610e14565b955050602061101c88828901610e14565b945050604061102d88828901610e14565b935050606061103e88828901610ea5565b925050608061104f88828901610e14565b9150509295509295909350565b7f4e487b7100000000000000000000000000000000000000000000000000000000600052601160045260246000fd5b600061109682610df3565b91506110a183610df3565b92508282019050808211156110b9576110b861105c565b5b92915050565b7f4e487b7100000000000000000000000000000000000000000000000000000000600052603260045260246000fd5b60006020828403121561110457611103610de9565b5b600061111284828501610ea5565b91505092915050565b61112481610df3565b82525050565b600060608201905061113f6000830186610cff565b61114c6020830185610cff565b611159604083018461111b565b949350505050565b60008115159050919050565b61117681611161565b811461118157600080fd5b50565b6000815190506111938161116d565b92915050565b6000602082840312156111af576111ae610de9565b5b60006111bd84828501611184565b91505092915050565b60006040820190506111db6000830185610cff565b6111e8602083018461111b565b9392505050565b600082825260208201905092915050565b6000819050919050565b61121381610ced565b82525050565b6000611225838361120a565b60208301905092915050565b60006112406020840184610ea5565b905092915050565b6000602082019050919050565b600061126183856111ef565b935061126c82611200565b8060005b858110156112a5576112828284611231565b61128c8882611219565b975061129783611248565b925050600181019050611270565b5085925050509392505050565b600060a0820190506112c7600083018961111b565b6112d4602083018861111b565b81810360408301526112e7818688611255565b90506112f66060830185610cff565b611303608083018461111b565b979650505050505050565b6000601f19601f8301169050919050565b7f4e487b7100000000000000000000000000000000000000000000000000000000600052604160045260246000fd5b6113578261130e565b810181811067ffffffffffffffff821117156113765761137561131f565b5b80604052505050565b6000611389610ddf565b9050611395828261134e565b919050565b600067ffffffffffffffff8211156113b5576113b461131f565b5b602082029050602081019050919050565b6000815190506113d581610dfd565b92915050565b60006113ee6113e98461139a565b61137f565b9050808382526020820190506020840283018581111561141157611410610e33565b5b835b8181101561143a578061142688826113c6565b845260208401935050602081019050611413565b5050509392505050565b600082601f83011261145957611458610e29565b5b81516114698482602086016113db565b91505092915050565b60006020828403121561148857611487610de9565b5b600082015167ffffffffffffffff8111156114a6576114a5610dee565b5b6114b284828501611444565b91505092915050565b60006040820190506114d06000830185610cff565b6114dd6020830184610cff565b9392505050565b6000815190506114f381610e8e565b92915050565b60006020828403121561150f5761150e610de9565b5b600061151d848285016114e4565b91505092915050565b60006020828403121561153c5761153b610de9565b5b600061154a848285016113c6565b91505092915050565b600082825260208201905092915050565b7f496e73756666696369656e7420616c6c6f77616e636520666f7220746f6b656e60008201527f2041000000000000000000000000000000000000000000000000000000000000602082015250565b60006115c0602283611553565b91506115cb82611564565b604082019050919050565b600060208201905081810360008301526115ef816115b3565b9050919050565b7f496e73756666696369656e7420616c6c6f77616e636520666f7220746f6b656e60008201527f2042000000000000000000000000000000000000000000000000000000000000602082015250565b6000611652602283611553565b915061165d826115f6565b604082019050919050565b6000602082019050818103600083015261168181611645565b9050919050565b60006101008201905061169e600083018b610cff565b6116ab602083018a610cff565b6116b8604083018961111b565b6116c5606083018861111b565b6116d2608083018761111b565b6116df60a083018661111b565b6116ec60c0830185610cff565b6116f960e083018461111b565b9998505050505050505050565b60008060006060848603121561171f5761171e610de9565b5b600061172d868287016113c6565b935050602061173e868287016113c6565b925050604061174f868287016113c6565b9150509250925092565b600060e08201905061176e600083018a610cff565b61177b6020830189610cff565b611788604083018861111b565b611795606083018761111b565b6117a2608083018661111b565b6117af60a0830185610cff565b6117bc60c083018461111b565b98975050505050505050565b600080604083850312156117df576117de610de9565b5b60006117ed858286016113c6565b92505060206117fe858286016113c6565b915050925092905056fea264697066735822122024c74952c946e73a3b3f674659ee96bbfa4a16f0c348a51dd39cd0a6a1b38b5a64736f6c63430008140033",
  "linkReferences": {},
  "deployedLinkReferences": {}
}